:0A0000000C9436000C9400000C94E0
:10000A0000000C9400000C9400000C9400000C9466
:10001A0000000C9400000C9400000C9400000C9456
:10002A0000000C9400000C9400000C9400000C9446
:10003A0000000C9400000C9400000C9400000C9436
:10004A0000000C9400000C9400003F065B4F666DA4
:10005A007D077F6F777C395E7971100060015400EB
:10006A000000F894EE27ECBBF1E0FBBFEBBFE5BF65
:10007A008DE0A2E0BB27ED938A95E9F780E094E052
:10008A00A0E6ED930197E9F7E4E6F0E08591959112
:10009A00009761F0A591B59105901590BF01F00107
:1000AA0005900D920197E1F7FB01F0CFEFE5EDBF67
:1000BA00E4E0EEBFC0E6D1E00C946300EFEFE1BBF1
:1000CA00E0916001E2BBE0E0E4BBEFEFE5BB989BA7
:1000DA0013C0541481F0EFE0E71529F47724E09176
:1000EA006001E5BB01C07394E72DF0E0E05AFE4FD2
:1000FA00E081E2BB542C02C0EFEF5E2EE8CFFFCFC7
:00000001FF
